:020000040800F2
:100000000000022055030008A5030008A50300080E
:10001000A5030008A5030008A503000800000000D0
:10002000000000000000000000000000A503000820
:10003000A503000800000000A5030008A5030008B0
:10004000A5030008A5030008A5030008A5030008F0
:10005000A5030008A5030008A5030008A5030008E0
:10006000A5030008A5030008A5030008A5030008D0
:10007000A5030008A5030008A5030008A5030008C0
:10008000A5030008A5030008A5030008A5030008B0
:10009000A5030008A5030008A5030008A5030008A0
:1000A000A5030008A5030008A5030008A503000890
:1000B000A5030008A5030008A5030008A503000880
:1000C000A5030008A5030008A5030008A503000870
:1000D000A5030008A5030008A5030008A503000860
:1000E000A5030008A5030008A5030008A503000850
:1000F000A5030008A5030008A5030008A503000840
:10010000A5030008A5030008A5030008A50300082F
:10011000A5030008A5030008A5030008A50300081F
:10012000A5030008A5030008A5030008A50300080F
:10013000A5030008A5030008A5030008A5030008FF
:10014000A5030008A5030008A5030008A5030008EF
:10015000A5030008A5030008A5030008A5030008DF
:10016000A5030008A5030008A5030008A5030008CF
:10017000A5030008A5030008A5030008000000006F
:08018000A5030008A503000817
:1001880010B5054C237833B9044B13B10448AFF3C9
:1001980000800123237010BD04000020000000002F
:1001A8001406000808B5034B1BB103490348AFF315
:1001B800008008BD000000000800002014060008A8
:1001C80080B483B000AF786039607A683B681344C4
:1001D80018460C37BD465DF8047B704780B483B081
:1001E80000AF786039607A683B68134418460C376A
:1001F800BD465DF8047B704780B485B000AF786079
:1002080039607B683A6802FB03F3FB6000BF18465D
:100218001437BD465DF8047B704780B483B000AFE7
:10022800786039607A683B6892FBF3F318460C37BC
:10023800BD465DF8047B704780B582B000AF78603A
:100248007B68002B02DA4FF0FF3308E07B68013B44
:100258001846FFF7F1FF02467B6802FB03F31846D6
:100268000837BD4680BD80B485B000AF78607B6834
:10027800012B01DC00231AE00223FB600EE07B68FF
:10028800FA6893FBF2F2F96801FB02F29B1A002B61
:1002980001D100230BE0FB680133FB607B68DA0FB8
:1002A80013445B101A46FB689342E8DB01231846A7
:1002B8001437BD465DF8047B704780B485B000AF45
:1002C800786039600CE03B68FB607B683A6893FBB8
:1002D800F2F2396801FB02F29B1A3B60FB687B6013
:1002E8003B68002BEFD17B6818461437BD465DF894
:1002F800047B704780B58AB000AF00F0DFF80A23AE
:100308007B6205233B62396A786AFFF759FFF86117
:10031800396A786AFFF762FFB861396A786AFFF765
:100328006BFF7861396A786AFFF777FF38610520D3
:10033800FFF782FFF8601120FFF795FFB8601221E0
:100348003020FFF7BAFF7860FEE70000DFF834D00E
:100358000D480E490E4A002302E0D458C450043315
:10036800C4188C42F9D30B4A0B4C002301E01360EC
:100378000432A242FBD300F05BF800F0B9F8FFF7B3
:10038800B9FF704700000220000000200400002090
:100398003806000804000020BC010020FEE780B4F5
:1003A80000AF4EF68850CEF20000016841F47001AB
:1003B800016000BF00BF00BF00BFF1EE100A4FF0A0
:1003C8000001C0F2C00140EA0100E1EE100A00BFDE
:1003D800BD465DF8047B704780B400AF124B1B68C4
:1003E800114A43F0010313600F4B00229A600E4B31
:1003F8001B680D4A23F0847323F4803313600A4B7F
:100408005A680949094B13404B60074B1B68064A59
:1004180023F480231360044B0022DA6000BFBD463A
:100428005DF8047B704700BF00380240103000249C
:1004380080B500AF1D4B1B681C4A43F005031360D1
:100448001A4B1B68194A43F480731360174B1B68D7
:10045800164A43F400731360FFF7BEFF144B154AA6
:100468005A60134B144A9A60114B81221A6000BFDC
:100478000F4B1B6803F00203002BF9D00C4B1B68D1
:100488000B4A43F08073136000BF094B1B6803F0ED
:100498000073002BF9D000BF054B9B6803F00C03D9
:1004A800082BF9D1FFF77BFF00BF80BD003C02405D
:1004B80000380240105400090294600080B400AF74
:1004C800074B1B7883F00103DBB2002B02D0044BEF
:1004D80001221A7000BFBD465DF8047B704700BF5B
:1004E80020000020002301461A46184600F040B8B4
:1004F80070B50F4B0F4DAB42A3EB050607D0B610F6
:10050800002455F8043B01349847A642F9D800F076
:100518007DF8094D094B5E1BAB424FEAA60606D093
:10052800002455F8043B01349847A642F9D870BD19
:100538002C0600082C0600082C06000834060008C3
:1005480038B5074D074C2C1BA41005D0013C55F8B5
:10055800043D9847002CF9D1BDE8384000F05CB85C
:100568003806000834060008704700BF704700BF0F
:100578002DE9F047DFF87CA00646DAF80000984637
:100588000F469146FFF7F0FF184B1C6824B36568C7
:100598001F2D24DC5EB96B1C0235DAF8000063609D
:1005A80044F82570FFF7E2FF0020BDE8F08704EB70
:1005B80085010123C1F88890D4F88821AB401A43FB
:1005C800022EC4F88821C1F80881E4D1D4F88C211E
:1005D8001A43C4F88C21DEE7054C1C60D7E7DAF82B
:1005E8000000FFF7C3FF4FF0FF30DEE7B80100203F
:1005F8002800002000000020024B13B10248FFF73A
:1006080071BF70470000000049050008F8B500BF39
:10061800F8BC08BC9E467047F8B500BFF8BC08BCDB
:040628009E46704733
:08062C0001060008AD01000801
:040634008901000830
:04063800240000207A
:040000050800035597
:00000001FF
