:020000040800F2
:1000000000000220D503000825040008250400088C
:10001000250400082504000825040008000000004D
:10002000000000000000000000000000250400089F
:10003000250400080000000025040008250400082D
:1000400025040008250400082504000825040008EC
:1000500025040008250400082504000825040008DC
:1000600025040008250400082504000825040008CC
:1000700025040008250400082504000825040008BC
:1000800025040008250400082504000825040008AC
:10009000250400082504000825040008250400089C
:1000A000250400082504000825040008250400088C
:1000B000250400082504000825040008250400087C
:1000C000250400082504000825040008250400086C
:1000D000250400082504000825040008250400085C
:1000E000250400082504000825040008250400084C
:1000F000250400082504000825040008250400083C
:10010000250400082504000825040008250400082B
:10011000250400082504000825040008250400081B
:10012000250400082504000825040008250400080B
:1001300025040008250400082504000825040008FB
:1001400025040008250400082504000825040008EB
:1001500025040008250400082504000825040008DB
:1001600025040008250400082504000825040008CB
:1001700025040008250400082504000800000000EC
:08018000250400082504000815
:1001880010B5054C237833B9044B13B10448AFF3C9
:1001980000800123237010BD04000020000000002F
:1001A8009406000808B5034B1BB103490348AFF395
:1001B800008008BD00000000080000209406000828
:1001C80080B500AF00F0BAF900BF80BD80B485B03B
:1001D80000AF78607B685B00FB60FB680533FB6001
:1001E80000BF1437BD465DF8047B704780B483B008
:1001F80000AF786039607A683B68134418460C375A
:10020800BD465DF8047B704780B582B000AF0A2315
:100218007B607868FFF7DAFF14217868FFF7E6FF5C
:10022800386000BF0837BD4680BD80B485B000AFD8
:10023800786039607B681B68FB600123BB6010E055
:10024800BB689B007A6813441B68FA689A4205DA0F
:10025800BB689B007A6813441B68FB60BB6801336A
:10026800BB60BA683B689A42EADBFB6818461437F9
:10027800BD465DF8047B704780B487B000AF7860F6
:10028800396000237B6134E000233B6127E03B6950
:100298009B007A6813441A683B6901339B007968AC
:1002A8000B441B689A4217DD3B699B007A6813442C
:1002B8001B68FB603B6901339B007A681A443B6901
:1002C8009B0079680B4412681A603B6901339B00F4
:1002D8007A681344FA681A603B6901333B613A68EB
:1002E8007B69D31A013B3A699A42D0DB7B690133B7
:1002F8007B613B68013B7A699A42C5DB00BF00BF5E
:100308001C37BD465DF8047B704780B582B000AFEE
:1003180078607B68012B01DC012308E07B68013BE6
:100328001846FFF7F2FF02467B6802FB03F3184604
:100338000837BD4680BD90B583B000AF78607B6854
:10034800012B01DC7B680CE07B68013B1846FFF75A
:10035800F2FF04467B68023B1846FFF7ECFF0346B2
:10036800234418460C37BD4690BD0000B0B58CB08C
:1003780000AFFFF725FF0723FB62F86AFFF726FFA8
:100388000F210520FFF732FFB8620F4B3C461D4690
:100398000FCD0FC495E8070084E807003B46072106
:1003A8001846FFF742FF78623B4607211846FFF7D9
:1003B80063FF0520FFF7A9FF38620620FFF7BBFFA0
:1003C800F861FFF721FFFCE7AC060008DFF834D03E
:1003D8000D480E490E4A002302E0D458C450043395
:1003E800C4188C42F9D30B4A0B4C002301E013606C
:1003F8000432A242FBD300F05BF800F0B9F8FFF733
:10040800B5FF704700000220000000200400002013
:10041800D406000804000020BC010020FEE780B4D8
:1004280000AF4EF68850CEF20000016841F470012A
:10043800016000BF00BF00BF00BFF1EE100A4FF01F
:100448000001C0F2C00140EA0100E1EE100A00BF5D
:10045800BD465DF8047B704780B400AF124B1B6843
:10046800114A43F0010313600F4B00229A600E4BB0
:100478001B680D4A23F0847323F4803313600A4BFE
:100488005A680949094B13404B60074B1B68064AD9
:1004980023F480231360044B0022DA6000BFBD46BA
:1004A8005DF8047B704700BF00380240103000241C
:1004B80080B500AF1D4B1B681C4A43F00503136051
:1004C8001A4B1B68194A43F480731360174B1B6857
:1004D800164A43F400731360FFF7BEFF144B154A26
:1004E8005A60134B144A9A60114B81221A6000BF5C
:1004F8000F4B1B6803F00203002BF9D00C4B1B6851
:100508000B4A43F08073136000BF094B1B6803F06C
:100518000073002BF9D000BF054B9B6803F00C0358
:10052800082BF9D1FFF77BFF00BF80BD003C0240DC
:1005380000380240105400090294600080B400AFF3
:10054800074B1B7883F00103DBB2002B02D0044B6E
:1005580001221A7000BFBD465DF8047B704700BFDA
:1005680020000020002301461A46184600F040B833
:1005780070B50F4B0F4DAB42A3EB050607D0B61075
:10058800002455F8043B01349847A642F9D800F0F6
:100598007DF8094D094B5E1BAB424FEAA60606D013
:1005A800002455F8043B01349847A642F9D870BD99
:1005B800C8060008C8060008C8060008D0060008D3
:1005C80038B5074D074C2C1BA41005D0013C55F835
:1005D800043D9847002CF9D1BDE8384000F05CB8DC
:1005E800D4060008D0060008704700BF704700BF57
:1005F8002DE9F047DFF87CA00646DAF800009846B7
:100608000F469146FFF7F0FF184B1C6824B3656846
:100618001F2D24DC5EB96B1C0235DAF8000063601C
:1006280044F82570FFF7E2FF0020BDE8F08704EBEF
:1006380085010123C1F88890D4F88821AB401A437A
:10064800022EC4F88821C1F80881E4D1D4F88C219D
:100658001A43C4F88C21DEE7054C1C60D7E7DAF8AA
:100668000000FFF7C3FF4FF0FF30DEE7B8010020BE
:100678002800002000000020024B13B10248FFF7B9
:1006880071BF704700000000C9050008F8B500BF39
:10069800F8BC08BC9E467047F8B500BFF8BC08BC5B
:0406A8009E467047B3
:1006AC000300000001000000040000000100000035
:0C06BC0005000000090000000200000022
:0806C80081060008AD010008E5
:0406D0008901000894
:0406D40024000020DE
:04000005080003D517
:00000001FF
